:100000000C9462000C948A000C948A000C948A0070
:100010000C948A000C948A000C948A000C948A0038
:100020000C948A000C948A000C948A000C948A0028
:100030000C948A000C948A000C948A000C948A0018
:100040000C9419040C948A000C948A000C948A0075
:100050000C948A000C948A000C948A000C948A00F8
:100060000C948A000C948A000000000024002700F1
:100070002A0000000000250028002B0000000000DE
:1000800023002600290004040404040404040202DA
:100090000202020203030303030301020408102007
:1000A0004080010204081020010204081020000012
:1000B0000008000201000003040700000000000027
:1000C0000000D10611241FBECFEFD8E0DEBFCDBFA8
:1000D00011E0A0E0B1E0E4ECF2E102C005900D9285
:1000E000A837B107D9F721E0A8E7B1E001C01D9218
:1000F000A33AB207E1F710E0C2E6D0E004C02197CE
:10010000FE010E941207C136D107C9F70E94A80458
:100110000C9460090C940000CF92DF92EF92FF9252
:100120000F931F93CF93DF936C017A018B01C0E093
:10013000D0E0CE15DF0589F0D8016D918D01D60193
:10014000ED91FC910190F081E02DC6010995892B7C
:1001500011F47E0102C02196ECCFC701DF91CF914F
:100160001F910F91FF90EF90DF90CF900895833013
:1001700081F028F4813099F08230A1F00895873021
:10018000A9F08830B9F08430D1F4809180008F7D5F
:1001900003C0809180008F7780938000089584B59C
:1001A0008F7702C084B58F7D84BD08958091B000A3
:1001B0008F7703C08091B0008F7D8093B000089549
:1001C000CF93DF93282F30E0F901E255FF4F849160
:1001D000F901E656FF4FD491F901EA57FF4FC49158
:1001E000CC2391F081110E94B700EC2FF0E0EE0FCC
:1001F000FF1FE458FF4FA591B491EC91ED2381E0EE
:1002000090E021F480E002C080E090E0DF91CF91A7
:1002100008951F93CF93DF93282F30E0F901E25523
:10022000FF4F8491F901E656FF4FD491F901EA5747
:10023000FF4FC491CC23C9F0162F81110E94B70043
:10024000EC2FF0E0EE0FFF1FEE58FF4FA591B49199
:100250008FB7F894111105C09C91ED2FE095E9231B
:1002600002C0EC91ED2BEC938FBFDF91CF911F91EA
:100270000895CF93DF9390E0FC01E656FF4F249161
:10028000FC01EA57FF4F8491882361F190E0880FC9
:10029000991FFC01E859FF4FC591D491FC01EE581C
:1002A000FF4FA591B491611109C09FB7F89488815F
:1002B000209582238883EC912E230BC0623061F459
:1002C0009FB7F8943881822F809583238883EC919F
:1002D0002E2B2C939FBF06C08FB7F894E8812E2B4E
:1002E00028838FBFDF91CF9108953FB7F894809115
:1002F000850190918601A0918701B091880126B572
:10030000A89B05C02F3F19F00196A11DB11D3FBF4D
:10031000BA2FA92F982F8827820F911DA11DB11DDB
:10032000BC01CD0142E0660F771F881F991F4A95D7
:10033000D1F708958F929F92AF92BF92CF92DF92A2
:10034000EF92FF926B017C010E9475014B015C01F1
:10035000C114D104E104F104F1F00E947501DC0143
:10036000CB0188199909AA09BB09883E9340A105C8
:10037000B10570F321E0C21AD108E108F10888EE56
:10038000880E83E0981EA11CB11CC114D104E104A5
:10039000F10419F7DDCFFF90EF90DF90CF90BF9081
:1003A000AF909F908F900895CF93DF93EC0160E022
:1003B0008E810E94090161E08E810E94090160E046
:1003C0008E810E9409018BE891E00197F1F7DF919E
:1003D000CF910895CF92DF92EF92FF920F931F93E8
:1003E000CF93DF937C016C0187E0C80ED11CC0E085
:1003F000D0E0062F10E0B8010C2E02C0759567956D
:100400000A94E2F76170F60181916F010E9409017F
:100410002196C430D10579F7C701DF91CF911F91A3
:100420000F91FF90EF90DF90CF900C94D401CF927A
:10043000DF92EF92FF920F931F93CF93DF93EC0124
:10044000F62E642F8C810E9409018D818F3F19F057
:1004500060E00E9409018F850F2D10E084FF25C008
:100460006E0187E0C80ED11CE12CF12CB8010E2CD6
:1004700002C0759567950A94E2F76170F601819163
:100480006F010E940901FFEFEF1AFF0A88E0E816EA
:10049000F10461F7CE01DF91CF911F910F91FF9091
:1004A000EF90DF90CF900C94D401B80184E0759563
:1004B00067958A95E1F7CE010E94EA016F2DCE0182
:1004C000DF91CF911F910F91FF90EF90DF90CF9030
:1004D0000C94EA0141E00E94170281E090E0089547
:1004E00040E00C941702843008F083E090919E0164
:1004F000891710F08FEF890FE82FF0E0E557FE4FD6
:10050000648960688BE891E00C94700261E00E945D
:1005100070028BE39FE10197F1F70895EF92FF924C
:100520000F931F93CF93DF93EC01623018F08F8508
:1005300088608F876B8B1C8A80E48D8B80E18E8B2B
:1005400080E58F8B61E08C810E9439018D818F3F26
:1005500019F061E00E94390161E08E810E94390149
:100560007E0187E0E80EF11C00E010E08F8584FD3D
:1005700003C084E090E002C088E090E0081719070B
:100580004CF461E0F70181917F010E9439010F5F16
:100590001F4FECCF8BE39DE00197F1F760E08C817A
:1005A0000E94090160E08E810E9409018D818F3FC8
:1005B00019F060E00E9409016F8564FD1DC063E0D1
:1005C000CE010E94EA010BE416E4C8010197F1F79D
:1005D00063E0CE010E94EA01C8010197F1F763E0F0
:1005E000CE010E94EA0183E592E00197F1F762E013
:1005F000CE010E94EA0116C06062CE010E94700224
:100600008BE496E40197F1F76F856062CE010E945A
:10061000700283E592E00197F1F76F856062CE0189
:100620000E9470026F856062CE010E94700284E0B9
:10063000888B6CE0CE010E947002CE010E9486027F
:1006400082E0898B66E0CE01DF91CF911F910F91FF
:10065000FF90EF900C947002009769F0FC010190FC
:100660000020E9F73197AF01481B590BBC018BE81B
:1006700091E00C948C0080E090E008958F929F921E
:10068000AF92BF920F931F93CF93DF93CDB7DEB797
:10069000A1970FB6F894DEBF0FBECDBF19A24230AE
:1006A00008F44AE08E010F5D1F4F842E912CA12C7F
:1006B000B12CA50194010E94F006E62FB901CA01F0
:1006C00001501109EA3014F4E05D01C0E95CD80181
:1006D000EC93232B242B252B61F7C8010E942C03BC
:1006E000A1960FB6F894DEBF0FBECDBFDF91CF91BC
:1006F0001F910F91BF90AF909F908F9008950C9491
:100700002C030E945B09CF92DF92EF92FF920F932E
:100710001F93CF93DF93EC0181E00E94730260E0AE
:1007200080E00E9409018BE090E00197F1F761E021
:1007300080E00E94090183E290E00197F1F760E018
:1007400080E00E940901EBE9F0E06491E7E8F0E065
:10075000E491F0E0EE0FFF1FE458FF4F8591949174
:1007600000E412E42FE030E0462F0E94630461159C
:1007700071058105910549F0DC01CB010196A11DB0
:10078000B11DBC01CD019F7003C060E070E0CB01E2
:1007900060937C0170937D0180937E0190937F0133
:1007A0000E9434082AE939E949E652E40E948A079E
:1007B0000E94FC07609378017093790180937A011D
:1007C00090937B0188E091E00E947F03CE01DD0FD2
:1007D000AA0BBB0BC0907801D0907901E0907A0110
:1007E000F0907B01C81AD90AEA0AFB0AF7FE14C086
:1007F000E0918B01F0918C010190F081E02D6DE290
:100800008BE891E0099566277727CB016C197D0964
:100810008E099F094AE003C04AE0C701B601DF9193
:10082000CF911F910F91FF90EF90DF90CF900C949C
:100830003E031F920F920FB60F9211242F933F93F6
:100840008F939F93AF93BF93809181019091820189
:10085000A0918301B09184013091800123E0230FA6
:100860002D3720F40196A11DB11D05C026E8230FE8
:100870000296A11DB11D2093800180938101909368
:100880008201A0938301B0938401809185019091AE
:100890008601A0918701B09188010196A11DB11D2B
:1008A0008093850190938601A0938701B09388017E
:1008B000BF91AF919F918F913F912F910F900FBE5C
:1008C0000F901F901895CF92DF92EF92FF920F93A7
:1008D0001F93E82FF92F05C0015011092109310993
:1008E00061F1908196239417B9F305C00150110965
:1008F0002109310911F1908196239413F7CFC12C6E
:10090000D12CE12CF12C0AC08FEFC81AD80AE80AC2
:10091000F80A0C151D052E053F0579F08081862308
:10092000841791F36C2D7D2D8E2D9F2D1F910F918E
:10093000FF90EF90DF90CF90089560E070E080E04E
:1009400090E01F910F91FF90EF90DF90CF9008956E
:10095000789484B5826084BD84B5816084BD85B59A
:10096000826085BD85B5816085BD80916E008160A6
:1009700080936E001092810080918100826080934C
:10098000810080918100816080938100809180004E
:100990008160809380008091B10084608093B10079
:1009A0008091B00081608093B00080917A00846073
:1009B00080937A0080917A00826080937A0080919F
:1009C0007A00816080937A0080917A0080688093B9
:1009D0007A001092C10062E08BE891E00E948E02E2
:1009E0008BE891E00E94860260E08EE00E9439016F
:1009F00060E08FE00E94390160E080E10E943901EF
:100A000061E08DE00E94390161E08CE00E943901D3
:100A100061E088E00E94390161E080E00E943901D4
:100A200060E081E00E94390160E081E10E943901CB
:100A300061E08BE00E94390161E08AE00E943901A7
:100A40000BE010E083E4382EC0E0D0E08BE891E0CA
:100A50000E94860260E080E00E940901C8010197BF
:100A6000F1F78EE00E94E000019711F580E00E940E
:100A7000730283E191E00E947F0361E08DE00E94B8
:100A8000090160E08CE00E9409016CED75E080E0F6
:100A900090E00E949A018BE891E00E94860281E238
:100AA00091E00E947F0380E090E00E9483034EC0AB
:100AB0008EE00E94E000892B09F048C080E00E948F
:100AC000730289E291E00E947F0360E08DE00E9462
:100AD000090161E08CE00E9409016CED75E080E0A5
:100AE00090E00E949A018BE891E00E94860287E3E1
:100AF00091E00E947F0381E490E00E9483038FE0F5
:100B00000E94E000892B11F56CED75E080E090E02B
:100B10000E949A018BE891E00E94860280E00E9488
:100B200073028FE391E00E947F0381E00E947302D1
:100B300087E491E00E947F0361E088E00E94090160
:100B400060EA7FE080E090E00E949A0180E10E94EC
:100B5000E000892B09F00DC130927C0080917A0071
:100B6000806480937A0080917A0086FDFCCF60914A
:100B700078008091790070E0782B70938A016093FF
:100B80008901072E000C880B990B0E94340820E085
:100B900030E040E85AE30E94E90820E030E44CE904
:100BA00055E40E94E90820E030E040E251E40E9470
:100BB0008A076B017C018BE891E00E94860280E04D
:100BC0000E94730285E591E00E947F0381E00E940C
:100BD0007302A7019601C701B6010E945609882336
:100BE00019F081E691E01AC046015701E894B7F880
:100BF0002FEF3FEF4FE75FE7C501B4010E945609B1
:100C000081110FC02FEF3FEF4FE75FE7C501B40140
:100C10000E94850718162CF485E691E00E942C03AB
:100C20007BC02FEF3FEF4FE75FE4C701B6010E94A3
:100C3000E40818161CF489E691E0F0CF2FEF3FEF9F
:100C40004FE75FECC701B6010E94850787FDF3CF30
:100C500020E030E0A901C701B6010E94850787FFA7
:100C60000FC0E0918B01F0918C010190F081E02D9B
:100C70006DE28BE891E00995C701B601905802C07A
:100C8000C701B6012AE037ED43EA5BE30E9419078A
:100C90002B013C010E9403084B015C010E943208B9
:100CA0009B01AC01C301B2010E9418072B013C015A
:100CB0004AE0C501B4010E943E038DE691E00E9426
:100CC0002C0320E030E040E251E4C301B2010E9475
:100CD000E9084B015C010E9403082B01612C712C77
:100CE0004AE0C301B2010E943E03C301B2010E9467
:100CF00032089B01AC01C501B4010E94180720E035
:100D000030E040E251E40E94E9080E94030880E0DC
:100D100090E04AE00E943E038FE691E00E947F034C
:100D200026E636E646E152E4C701B6010E94E40831
:100D300018163CF460E08BE00E94090161E08AE053
:100D400010C026E636E646E152E4C701B6010E942D
:100D5000850787FF08C060E08AE00E94090161E022
:100D60008BE00E94090168EE73E080E090E00E9451
:100D70009A0160E08DE00E94090160E08CE00E9431
:100D8000090160E088E00E94090168EE73E080E0FC
:100D900090E00E949A01209709F458CE0E9400002A
:100DA00055CEEBE8F1E01382128284E091E091836A
:100DB000808382E084838FEF858383E0868384E071
:100DC000878385E0808786E0818787E08287138636
:100DD000148615861686178661E0CF010C948E0264
:100DE000A1E21A2EAA1BBB1BFD010DC0AA1FBB1F2F
:100DF000EE1FFF1FA217B307E407F50720F0A21BA1
:100E0000B30BE40BF50B661F771F881F991F1A940D
:100E100069F760957095809590959B01AC01BD0137
:100E2000CF010895EE0FFF1F0590F491E02D099476
:100E30005058BB27AA270E9430070C94AA080E948A
:100E40009C0838F00E94A30820F039F49F3F19F461
:100E500026F40C9499080EF4E095E7FB0C949308A3
:100E6000E92F0E94BB0858F3BA176207730784077B
:100E7000950720F079F4A6F50C94DD080EF4E095C2
:100E80000B2EBA2FA02D0B01B90190010C01CA0144
:100E9000A0011124FF27591B99F0593F50F4503EEF
:100EA00068F11A16F040A22F232F342F4427585FE1
:100EB000F3CF469537952795A795F0405395C9F7F9
:100EC0007EF41F16BA0B620B730B840BBAF09150B1
:100ED000A1F0FF0FBB1F661F771F881FC2F70EC050
:100EE000BA0F621F731F841F48F487957795679523
:100EF000B795F7959E3F08F0B0CF9395880F08F00F
:100F00009927EE0F9795879508950E946F0808F42A
:100F100081E008950E949E070C94AA080E94A308ED
:100F200058F00E949C0840F029F45F3F29F00C948F
:100F3000930851110C94DE080C9499080E94BB0888
:100F400068F39923B1F3552391F3951B550BBB27F8
:100F5000AA2762177307840738F09F5F5F4F220F3D
:100F6000331F441FAA1FA9F335D00E2E3AF0E0E834
:100F700032D091505040E695001CCAF72BD0FE2F7E
:100F800029D0660F771F881FBB1F26173707480712
:100F9000AB07B0E809F0BB0B802DBF01FF279358CA
:100FA0005F4F3AF09E3F510578F00C9493080C94F3
:100FB000DE085F3FE4F3983ED4F386957795679516
:100FC000B795F7959F5FC9F7880F911D96958795FF
:100FD00097F90895E1E0660F771F881FBB1F62171E
:100FE00073078407BA0720F0621B730B840BBA0BDC
:100FF000EE1F88F7E09508950E9403086894B111E8
:101000000C94DE0808950E94C30888F09F5798F05A
:10101000B92F9927B751B0F0E1F0660F771F881FFD
:10102000991F1AF0BA95C9F714C0B13091F00E9417
:10103000DD08B1E008950C94DD08672F782F88272C
:10104000B85F39F0B93FCCF3869577956795B3953E
:10105000D9F73EF490958095709561957F4F8F4FAD
:101060009F4F0895E89409C097FB3EF490958095B2
:10107000709561957F4F8F4F9F4F9923A9F0F92F5E
:1010800096E9BB279395F695879577956795B795DC
:10109000F111F8CFFAF4BB0F11F460FF1BC06F5FC2
:1010A0007F4F8F4F9F4F16C0882311F096E911C0D4
:1010B000772321F09EE8872F762F05C0662371F0F5
:1010C00096E8862F70E060E02AF09A95660F771F09
:1010D000881FDAF7880F9695879597F90895990FE5
:1010E0000008550FAA0BE0E8FEEF16161706E807F2
:1010F000F907C0F012161306E407F50798F0621B13
:10110000730B840B950B39F40A2661F0232B242BE7
:10111000252B21F408950A2609F4A140A6958FEF06
:10112000811D811D089597F99F6780E870E060E058
:1011300008959FEF80EC089500240A941616170670
:1011400018060906089500240A94121613061406B8
:1011500005060895092E0394000C11F4882352F01B
:10116000BB0F40F4BF2B11F460FF04C06F5F7F4FD3
:101170008F4F9F4F089557FD9058440F551F59F0BA
:101180005F3F71F04795880F97FB991F61F09F3F74
:1011900079F087950895121613061406551FF2CF9D
:1011A0004695F1DF08C0161617061806991FF1CFED
:1011B00086957105610508940895E894BB27662714
:1011C0007727CB0197F908950E946F0808F48FEFF5
:1011D00008950E94FC080C94AA080E949C0838F00C
:1011E0000E94A30820F0952311F00C9493080C940E
:1011F000990811240C94DE080E94BB0870F3959F97
:10120000C1F3950F50E0551F629FF001729FBB27FD
:10121000F00DB11D639FAA27F00DB11DAA1F649F99
:101220006627B00DA11D661F829F2227B00DA11D4C
:10123000621F739FB00DA11D621F839FA00D611DD2
:10124000221F749F3327A00D611D231F849F600DF3
:10125000211D822F762F6A2F11249F5750409AF01C
:10126000F1F088234AF0EE0FFF1FBB1F661F771FA8
:10127000881F91505040A9F79E3F510580F00C9473
:1012800093080C94DE085F3FE4F3983ED4F3869510
:1012900077956795B795F795E7959F5FC1F7FE2B13
:1012A000880F911D9695879597F908950E946F086C
:1012B000880B990B089581E090E0F8940C946009F4
:0412C000F894FFCFD0
:1012C400000000006A028C0064697374616E6369D3
:1012D400613A0041627269656E646F2043616A61BC
:1012E40000416269657274610043657272616E6483
:1012F4006F2043616A610043657272616461004DED
:101304006F746F72657300456E63656E6469646FB4
:1013140073203A290054656D706572617475726149
:10132400006E616E00696E66006F7666002E0020A6
:08133400477261646F73000051
:00000001FF
